{
  "transactions": [
    {
      "hash": "0x9f2855f9b8eecf4bcc417953b7bb4dd5d40688a7bcf554838528b3c61bd150aa",
      "transactionType": "CALL",
      "contractName": "ProxyAdmin",
      "contractAddress": "0x36741238e42BDFAe14Dacb4af6dA88d03490d67f",
      "function": "upgrade(address,address)",
      "arguments": [
        "0xB4448bb8673B99749A6bc9f03c589D05D141a615",
        "0x23951139124dd1803BE081e781Ba563C554D0542"
      ],
      "transaction": {
        "type": "0x02",
        "from": "0xe6046371b729f23206a94ddcace89fecebbd565c",
        "to": "0x36741238e42bdfae14dacb4af6da88d03490d67f",
        "gas": "0xdf22",
        "value": "0x0",
        "data": "0x99a88ec4000000000000000000000000b4448bb8673b99749a6bc9f03c589d05d141a61500000000000000000000000023951139124dd1803be081e781ba563c554d0542",
        "nonce": "0x6c2",
        "accessList": []
      },
      "additionalContracts": [],
      "isFixedGasLimit": false
    }
  ],
  "receipts": [
    {
      "transactionHash": "0x9f2855f9b8eecf4bcc417953b7bb4dd5d40688a7bcf554838528b3c61bd150aa",
      "transactionIndex": "0x0",
      "blockHash": "0x543d9fa04dc7cba373d134fb89708c12687b66618657c9394d77186de0f910c5",
      "blockNumber": "0x9493a7",
      "from": "0xe6046371B729f23206a94DDCace89FEceBBD565c",
      "to": "0x36741238e42BDFAe14Dacb4af6dA88d03490d67f",
      "cumulativeGasUsed": "0x9892",
      "gasUsed": "0x9892",
      "contractAddress": null,
      "logs": [
        {
          "address": "0xB4448bb8673B99749A6bc9f03c589D05D141a615",
          "topics": [
            "0xbc7cd75a20ee27fd9adebab32041f755214dbc6bffa90cc0225b39da2e5c2d3b",
            "0x00000000000000000000000023951139124dd1803be081e781ba563c554d0542"
          ],
          "data": "0x",
          "blockHash": "0x543d9fa04dc7cba373d134fb89708c12687b66618657c9394d77186de0f910c5",
          "blockNumber": "0x9493a7",
          "transactionHash": "0x9f2855f9b8eecf4bcc417953b7bb4dd5d40688a7bcf554838528b3c61bd150aa",
          "transactionIndex": "0x0",
          "logIndex": "0x0",
          "removed": false
        }
      ],
      "status": "0x1",
      "logsBloom": "0x00000100000000000000000000000000400000000000000000000000000000000000000000000000000000000000000000000000000000000000000000000000000000000000000000000080000002000000000000000000000000000000000000004000000000000000000000000000000000000000000000000000000000000000000000100000000000000000000000000000000000000000000000000000000000000000000000000000000000000000080000000000000000000000000000000020000000000800000000000000000000000000000000000000000000000000000000000000000000000000000000000000000000000000000000000000",
      "type": "0x2",
      "effectiveGasPrice": "0xb2d05e0a"
    }
  ],
  "libraries": [],
  "pending": [],
  "returns": {},
  "timestamp": 1695350372,
  "chain": 5,
  "multi": false,
  "commit": "1c9ef46"
}