{
  "transactions": [
    {
      "hash": "0x824aa1e45bdd8fd73038bbab817ecbde93343e4cdcf57c80d1f2f46e24e2994b",
      "transactionType": "CALL",
      "contractName": "D4ADiamond",
      "contractAddress": "0x7041Ea9C2d611014B4eA0401b1dee0676e971224",
      "function": "diamondCut((address,uint8,bytes4[])[],address,bytes)",
      "arguments": [
        "[(0xF6E9b2822cE9ebAB9c873324Df8b74cdb67ef953, 1, [0x8225c25100000000000000000000000000000000000000000000000000000000])]",
        "0x0000000000000000000000000000000000000000",
        "0x"
      ],
      "transaction": {
        "type": "0x02",
        "from": "0xe6046371b729f23206a94ddcace89fecebbd565c",
        "to": "0x7041ea9c2d611014b4ea0401b1dee0676e971224",
        "gas": "0x10218",
        "value": "0x0",
        "data": "0x1f931c1c00000000000000000000000000000000000000000000000000000000000000600000000000000000000000000000000000000000000000000000000000000000000000000000000000000000000000000000000000000000000000000000014000000000000000000000000000000000000000000000000000000000000000010000000000000000000000000000000000000000000000000000000000000020000000000000000000000000f6e9b2822ce9ebab9c873324df8b74cdb67ef9530000000000000000000000000000000000000000000000000000000000000001000000000000000000000000000000000000000000000000000000000000006000000000000000000000000000000000000000000000000000000000000000018225c251000000000000000000000000000000000000000000000000000000000000000000000000000000000000000000000000000000000000000000000000",
        "nonce": "0x78b",
        "accessList": []
      },
      "additionalContracts": [],
      "isFixedGasLimit": false
    }
  ],
  "receipts": [
    {
      "transactionHash": "0x824aa1e45bdd8fd73038bbab817ecbde93343e4cdcf57c80d1f2f46e24e2994b",
      "transactionIndex": "0x2",
      "blockHash": "0x7fed4ae1686c1734d659efffb49ee730ad5a9e68d29cb83f4187370e5d140a40",
      "blockNumber": "0x9978b8",
      "from": "0xe6046371B729f23206a94DDCace89FEceBBD565c",
      "to": "0x7041Ea9C2d611014B4eA0401b1dee0676e971224",
      "cumulativeGasUsed": "0x31111",
      "gasUsed": "0xb07a",
      "contractAddress": null,
      "logs": [
        {
          "address": "0x7041Ea9C2d611014B4eA0401b1dee0676e971224",
          "topics": [
            "0x8faa70878671ccd212d20771b795c50af8fd3ff6cf27f4bde57e5d4de0aeb673"
          ],
          "data": "0x00000000000000000000000000000000000000000000000000000000000000600000000000000000000000000000000000000000000000000000000000000000000000000000000000000000000000000000000000000000000000000000014000000000000000000000000000000000000000000000000000000000000000010000000000000000000000000000000000000000000000000000000000000020000000000000000000000000f6e9b2822ce9ebab9c873324df8b74cdb67ef9530000000000000000000000000000000000000000000000000000000000000001000000000000000000000000000000000000000000000000000000000000006000000000000000000000000000000000000000000000000000000000000000018225c251000000000000000000000000000000000000000000000000000000000000000000000000000000000000000000000000000000000000000000000000",
          "blockHash": "0x7fed4ae1686c1734d659efffb49ee730ad5a9e68d29cb83f4187370e5d140a40",
          "blockNumber": "0x9978b8",
          "transactionHash": "0x824aa1e45bdd8fd73038bbab817ecbde93343e4cdcf57c80d1f2f46e24e2994b",
          "transactionIndex": "0x2",
          "logIndex": "0x5",
          "removed": false
        }
      ],
      "status": "0x1",
      "logsBloom": "0x00000020000000000000200000000000000010000000000000000000000000000000000000000000000000000000000000000000000000000000000000000000000000000000000000000000000000000000000001000000000800000000000000000000000000000000000000000000000000000000000000000000000000000020000000000000000000000000000000000000000000000000000000000000000000000000000000000000000000000000000000000000000000000000000000000000000000000000000000000000000000000000000000000000000000000000000000000000000000000000000000000000000000000000000000000000",
      "type": "0x2",
      "effectiveGasPrice": "0xb2d05e0a"
    }
  ],
  "libraries": [],
  "pending": [],
  "returns": {},
  "timestamp": 1700203237,
  "chain": 5,
  "multi": false,
  "commit": "f2904bc"
}